:100000000C9434000C9451000C9451000C94510049
:100010000C9451000C9451000C9451000C9451001C
:100020000C9451000C9451000C9451000C9451000C
:100030000C9451000C9451000C9451000C945100FC
:100040000C9451000C9451000C9451000C945100EC
:100050000C9451000C9451000C9451000C945100DC
:100060000C9451000C94510011241FBECFEFD8E026
:10007000DEBFCDBF11E0A0E0B1E0E2E3FDE002C0F1
:1000800005900D92AA36B107D9F721E0AAE6B1E0B2
:1000900001C01D92AD37B207E1F70E946E040C94C7
:1000A0008E060C940000CF93DF93CDB7DEB72C976C
:1000B0000FB6F894DEBF0FBECDBF8CE0E0E0F1E0FC
:1000C000DE01119601900D928A95E1F780E0E1E062
:1000D000F0E08230E9F55D9A50E040E0242F69B10C
:1000E00070E0042E02C0759567950A94E2F760FFF0
:1000F00035C0AFE1BEE41197F1F700C00000BF01C9
:1001000002C0660F771F4A95E2F749B150E04623D7
:100110005723452BD1F79BB19F719BB9243031F107
:1001200030E0F901EE0FFF1FE20FF31F21E030E096
:100130002C0F3D1FE20FF31FE80FF11D80812C965D
:100140000FB6F894DEBF0FBECDBFDF91CF910895FB
:10015000813011F45E9AC0CF5F9ABECF4F5F5F4F80
:100160004430510509F0BACF24E0D5CF8F5F8330FA
:1001700009F0AFCF80E0E3CF860F971FDC01EC9151
:10018000E13081F080ED8E0F8A3040F5E1538EE151
:1001900091E0E93048F40E2E000CFF0BE057F94FC8
:1001A0000C94CF048CE091E00C9459048EE091E023
:1001B000FBCF80E191E0F8CF82E191E0F5CF84E1DF
:1001C00091E0F2CF86E191E0EFCF88E191E0ECCFD2
:1001D0008AE191E0E9CF8CE191E0E6CF80E291E025
:1001E000E3CF0E94550485E291E00E9459042D9AC4
:1001F0002F980895EF92FF920F931F93CF93DF9361
:10020000EB018A018A9709F044C081E04037580722
:1002100049F50E94550410E000E0B80186E791E03E
:100220000E94BC000F5F1F4F06301105B1F761E05F
:1002300081E00E94660410E000E021970C171D0782
:100240004CF08FEF9FEFDF91CF911F910F91FF90B7
:10025000EF900895B80180E791E00E94BC000F5F25
:100260001F4FECCF81E04637580719F04A565140EE
:1002700041F70E945504F12CE12C2197EC16FD0664
:1002800004F7B701C8010E94BC008FEFE81AF80A12
:10029000F5CF81E090E0D7CFCF92DF92FF920F931E
:1002A0001F93CF93DF938B01D0E0C0E00E945300F7
:1002B000F82EC82E880FDD08A801BE01C6010E94D5
:1002C000FA00019661F42197C630D10579F7DF91E4
:1002D000CF911F910F91FF90DF90CF900895F8017B
:1002E000EC0FFD1FF082CD2809F3BE01C8010E946A
:1002F000BC002196E9CFFC01DB01069631912D91DE
:10030000321306C0E817F907C9F781E090E00895B5
:100310008FEF9FEF08950E94550484E391E00E94BF
:1003200059042F9A2D980895CF92DF92FF920F9340
:100330001F93CF93DF938B010E945504D0E0C0E060
:100340000E945300F82EC82E880FDD08A801BE01B8
:10035000C6010E94FA00019661F42197C630D105CA
:1003600079F7DF91CF911F910F91FF90DF90CF90A0
:100370000895F801EC0FFD1FF082CD2809F3BE01AE
:10038000C8010E94BC002196E9CFFC01DB01069662
:1003900031912D91321791F00E9455048BE391E039
:1003A0000E9459042FEF87EA91E621508040904047
:1003B000E1F700C000008FEF9FEF0895E817F907FD
:1003C00039F781E090E008950E947B01019689F45D
:1003D0000E9455048BE391E00E9459048FEF97EA45
:1003E00021E6815090402040E1F700C000000C94CD
:1003F0006E040E9455048DE491E00E9459048FEF31
:1004000097EA21E6815090402040E1F700C00000CB
:100410000C948B01EF92FF920F931F93CF93DF9376
:100420007C01EB010E94550403E010E0BE01C7010E
:100430000E949401BE0186E791E00E94C5010196E9
:10044000D9F40150110991F70E9455048EE591E00D
:100450000E9459043FEF83EB94EC24E0315080403C
:1004600090402040D9F700C00000DF91CF911F914C
:100470000F91FF90EF9008950E945504DF91CF9166
:100480001F910F91FF90EF900C946E041092C50095
:1004900080E18093C40086E08093C20088E180936D
:1004A000C10008959091C00095FFFCCF8093C600D5
:1004B00008959091C00095FFFCCF08958091C000F1
:1004C00087FFFCCF8091C6000895CF93DF93EC01A6
:1004D0008991811105C08AE0DF91CF910C9452027D
:1004E0000E945202F5CF8F929F92AF92BF92DF92FD
:1004F000EF92FF920F931F93CF93DF93CDB7DEB7A9
:10050000A2970FB6F894DEBF0FBECDBF6F8F78A352
:1005100089A39AA3DC01CB01B7FD46C08E010F5F12
:100520001F4F78012AE0822E912CA12CB12C6F8DC7
:1005300078A189A19AA1A50194010E94B0046F8FAE
:1005400078A389A39AA3F8010F5F1F4F8F8D805D59
:1005500080832F8F38A349A35AA3232B242B252B29
:1005600031F7D8011C92F701015011090E171F072E
:1005700008F043C08E010F5F1F4FF80181918F017A
:10058000811144C0A2960FB6F894DEBF0FBECDBF56
:10059000DF91CF911F910F91FF90EF90DF90BF906F
:1005A000AF909F908F9008958DE289838E010E5FAA
:1005B0001F4F78018AE0882E912CA12CB12C90E35A
:1005C000D92E6F8D78A189A19AA1A50194010E94CD
:1005D000B0046F8F78A389A39AA3F8010F5F1F4F10
:1005E0008D2D9F8D891B80832F8F38A349A35AA3FC
:1005F000232B242B252B29F7B4CF8191D8019C9153
:10060000DF0111979C93D8018C93AECF0E945202C8
:10061000B4CF6F927F928F929F92AF92BF92CF9200
:10062000DF92EF92FF920F931F93CF93DF93CDB79B
:10063000DEB7A2970FB6F894DEBF0FBECDBF6F8FA7
:1006400078A389A39AA34B015C01BC01A401FE011C
:1006500031963F019F0131966A017B011FE0C12263
:10066000DD24EE24FF2480E3C80ED901CC926A0178
:100670007B0194E076956795579547959A95D1F7C4
:10068000B0E1CB16D104E104F10420F710E18116AA
:100690009104A104B10410F4808331961082830187
:1006A000D3013197EA17FB07D0F4D8018D918D0162
:1006B000811120C0A2960FB6F894DEBF0FBECDBF49
:1006C000DF91CF911F910F91FF90EF90DF90CF902E
:1006D000BF90AF909F908F907F906F9008958C9176
:1006E0008A330CF0895D90819A330CF0995D9D936B
:1006F0008083D7CF0E945202D8CFCF93DF93EC01F3
:100700008991811103C0DF91CF9108950E94520217
:10071000F7CFCF93DF93CDB7DEB728970FB6F89416
:10072000DEBF0FBECDBF69837A838B839C830E941B
:1007300064056D837E838F8398870E94730288E6A9
:1007400091E00E947D036D817E818F8198850E945A
:1007500093056D837E838F8398879B01AC016981AC
:100760007A818B819C810E94F70469837A838B83D1
:100770009C8320E030E04AE754E40E94210669832C
:100780007A838B839C830E94640569837A838B833D
:100790009C83DC01CB0184369105A105B10580F471
:1007A0008EE191E00E947D0389819A81AB81BC81B9
:1007B0000A97A105B10520F48EE191E00E947D0326
:1007C00069817A818B819C8128960FB6F894DEBF6F
:1007D0000FBECDBFDF91CF910C947302982F880F7D
:1007E000880F880F887091FD846092FD826093FD70
:1007F00081600895CF93C82F88B1807F88B9662320
:1008000069F1459A85E08A95F1F700008C2F829571
:100810008F700E94EE0398B1982B98B9449A85E0A6
:100820008A95F1F70000449885E08A95F1F7000079
:1008300088B1807F88B98C2F8F700E94EE0398B1A9
:10084000982B98B9449A85E08A95F1F7000044986E
:1008500085E08A95F1F70000CF9108954598D2CFB1
:1008600087B18F6387B98FE59AEE0197F1F700C0E2
:10087000000060E083E30E94FA0360E083E30E94EB
:10088000FA0360E082E30E94FA0360E088E20E94DB
:10089000FA0360E088E00E94FA0360E08FE00E94C3
:1008A000FA0360E081E00C94FA0360E081E00C94CC
:1008B000FA03CF93DF93EC018991811103C0DF919B
:1008C000CF91089561E00E94FA03F6CF90EC613079
:1008D00009F090E860E0890F0C94FA030E94460248
:1008E0008AB1807F8AB98AB1806E8AB9259A279A9F
:1008F0002098289A0E9430040E94F1002FEF83E292
:1009000094EF215080409040E1F700C000000E9429
:10091000550466E771E0D0E0C0E0CE010E944C01D2
:1009200061E081E00E94660460E771E0CE010E9410
:100930004C0160E771E086E791E00E94E4012FEF4F
:1009400083E294EF215080409040E1F700C0000026
:100950006AE671E0CE010E940A0290E080E008950C
:10096000052E97FB1EF400940E94C70457FD07D084
:100970000E94D50407FC03D04EF40C94C704509594
:100980004095309521953F4F4F4F5F4F089590957B
:100990008095709561957F4F8F4F9F4F0895EE0F13
:1009A000FF1F0590F491E02D0994A1E21A2EAA1BD5
:1009B000BB1BFD010DC0AA1FBB1FEE1FFF1FA2170F
:1009C000B307E407F50720F0A21BB30BE40BF50B0C
:1009D000661F771F881F991F1A9469F76095709595
:1009E000809590959B01AC01BD01CF0108955058B1
:1009F000BB27AA270E940F050C94E7050E94D90582
:100A000038F00E94E00520F039F49F3F19F426F4F5
:100A10000C94D6050EF4E095E7FB0C94D005E92F75
:100A20000E94F80558F3BA17620773078407950701
:100A300020F079F4A6F50C941A060EF4E0950B2E2E
:100A4000BA2FA02D0B01B90190010C01CA01A00120
:100A50001124FF27591B99F0593F50F4503E68F17B
:100A60001A16F040A22F232F342F4427585FF3CFBC
:100A7000469537952795A795F0405395C9F77EF48D
:100A80001F16BA0B620B730B840BBAF09150A1F0D6
:100A9000FF0FBB1F661F771F881FC2F70EC0BA0F5C
:100AA000621F731F841F48F4879577956795B795E4
:100AB000F7959E3F08F0B0CF9395880F08F09927DF
:100AC000EE0F9795879508950E94000688F09F572E
:100AD00098F0B92F9927B751B0F0E1F0660F771F62
:100AE000881F991F1AF0BA95C9F714C0B13091F058
:100AF0000E941A06B1E008950C941A06672F782F09
:100B00008827B85F39F0B93FCCF38695779567951C
:100B1000B395D9F73EF490958095709561957F4F88
:100B20008F4F9F4F0895E89409C097FB3EF490952E
:100B30008095709561957F4F8F4F9F4F9923A9F0B6
:100B4000F92F96E9BB279395F69587957795679545
:100B5000B795F111F8CFFAF4BB0F11F460FF1BC089
:100B60006F5F7F4F8F4F9F4F16C0882311F096E91C
:100B700011C0772321F09EE8872F762F05C06623CA
:100B800071F096E8862F70E060E02AF09A95660F83
:100B9000771F881FDAF7880F9695879597F908953C
:100BA00097F99F6780E870E060E008959FEF80EC20
:100BB000089500240A9416161706180609060895C3
:100BC00000240A9412161306140605060895092E29
:100BD0000394000C11F4882352F0BB0F40F4BF2B98
:100BE00011F460FF04C06F5F7F4F8F4F9F4F0895D8
:100BF00057FD9058440F551F59F05F3F71F04795CE
:100C0000880F97FB991F61F09F3F79F087950895B2
:100C1000121613061406551FF2CF4695F1DF08C0D1
:100C2000161617061806991FF1CF869571056105EE
:100C300008940895E894BB2766277727CB0197F996
:100C400008950E9434060C94E7050E94D90538F0F7
:100C50000E94E00520F0952311F00C94D0050C942F
:100C6000D60511240C941B060E94F80570F3959F7D
:100C7000C1F3950F50E0551F629FF001729FBB2793
:100C8000F00DB11D639FAA27F00DB11DAA1F649F2F
:100C90006627B00DA11D661F829F2227B00DA11DE2
:100CA000621F739FB00DA11D621F839FA00D611D68
:100CB000221F749F3327A00D611D231F849F600D89
:100CC000211D822F762F6A2F11249F5750409AF0B2
:100CD000F1F088234AF0EE0FFF1FBB1F661F771F3E
:100CE000881F91505040A9F79E3F510580F00C9409
:100CF000D0050C941B065F3FE4F3983ED4F3869531
:100D000077956795B795F795E7959F5FC1F7FE2BA8
:100D1000880F911D9695879597F90895F894FFCFC0
:100D2000D200D600D900DC00DF00E200E500E800D8
:020D3000EB00D6
:100D32003132333435363738392A302331003200F4
:100D420033003400350036003700380039003000F7
:100D52006572726F004C69767265207061726120F3
:100D620075736F00456D2075736F0053656E686112
:100D720073206469666572656E7465730053656E8F
:100D82006861206361646173747261646100626CA2
:0A0D92006F71756561646F002E003B
:00000001FF
