:100000000C9434000C9451000C9451000C94510049
:100010000C9451000C9451000C9451000C9451001C
:100020000C9451000C9451000C9451000C9451000C
:100030000C9451000C9451000C9451000C945100FC
:100040000C9451000C9451000C9451000C945100EC
:100050000C9451000C9451000C9451000C945100DC
:100060000C9451000C94510011241FBECFEFD8E026
:10007000DEBFCDBF11E0A0E0B1E0E8E6FDE002C0E8
:1000800005900D92AA36B107D9F721E0AAE6B1E0B2
:1000900001C01D92A038B207E1F70E9489040C94B8
:1000A000A9060C940000CF93DF93CDB7DEB72C9751
:1000B0000FB6F894DEBF0FBECDBF8CE0E0E0F1E0FC
:1000C000DE01119601900D928A95E1F780E0E1E062
:1000D000F0E08230E9F55D9A50E040E0242F69B10C
:1000E00070E0042E02C0759567950A94E2F760FFF0
:1000F00035C0AFE1BEE41197F1F700C00000BF01C9
:1001000002C0660F771F4A95E2F749B150E04623D7
:100110005723452BD1F79BB19F719BB9243031F107
:1001200030E0F901EE0FFF1FE20FF31F21E030E096
:100130002C0F3D1FE20FF31FE80FF11D80812C965D
:100140000FB6F894DEBF0FBECDBFDF91CF910895FB
:10015000813011F45E9AC0CF5F9ABECF4F5F5F4F80
:100160004430510509F0BACF24E0D5CF8F5F8330FA
:1001700009F0AFCF80E0E3CF860F971FDC01EC9151
:10018000E13081F080ED8E0F8A3040F5E1538EE151
:1001900091E0E93048F40E2E000CFF0BE555F94FC5
:1001A0000C94EA048CE091E00C9474048EE091E0ED
:1001B000FBCF80E191E0F8CF82E191E0F5CF84E1DF
:1001C00091E0F2CF86E191E0EFCF88E191E0ECCFD2
:1001D0008AE191E0E9CF8CE191E0E6CF80E291E025
:1001E000E3CF0E94700485E291E00E9474042D9A8E
:1001F0002F980895EF92FF920F931F93CF93DF9361
:10020000EB018A018A32910509F048C06630710518
:100210000CF04EC081E04137580749F50E94700448
:1002200010E000E0B80188E791E00E94BC000F5F99
:100230001F4F06301105B1F761E081E00E94810493
:1002400010E000E021970C171D074CF08FEF9FEF97
:10025000DF91CF911F910F91FF90EF900895B8011A
:1002600081E791E00E94BC000F5F1F4FECCF81E05F
:100270004837580719F04A56514041F70E94700418
:10028000F12CE12C2197EC16FD0604F7B701C8010B
:100290000E94BC008FEFE81AF80AF5CF839741F46B
:1002A00081E090E06630710599F690E080E0D0CF73
:1002B00081E090E0CDCFCF92DF92FF920F931F931A
:1002C000CF93DF938B01D0E0C0E00E945300F82E63
:1002D000C82E880FDD08A801BE01C6010E94FA00E1
:1002E000019661F42197C730D10579F7DF91CF915D
:1002F0001F910F91FF90DF90CF900895A801BE014C
:10030000C6010E94FA00019789F7F801EC0FFD1F62
:10031000F082CD28D1F2BE01C8010E94BC00219616
:10032000E2CFFC01DB01079631912D91321306C01B
:10033000E817F907C9F781E090E008958FEF9FEF84
:1003400008950E94700484E391E00E9474042F9A3F
:100350002D980895CF92DF92FF920F931F93CF9322
:10036000DF938B010E947004D0E0C0E00E94530034
:10037000F82EC82E880FDD08A801BE01C6010E9414
:10038000FA00019661F42197C730D10579F7DF9122
:10039000CF911F910F91FF90DF90CF900895A8010A
:1003A000BE01C6010E94FA00019789F7F801EC0F1F
:1003B000FD1FF082CD28D1F2BE01C8010E94BC0011
:1003C0002196E2CFFC01DB01069631912D91321787
:1003D00091F00E9470048BE391E00E9474042FEF6F
:1003E00087EA91E6215080409040E1F700C000008C
:1003F0008FEF9FEF0895E817F90739F781E090E054
:1004000008950E949101019689F40E9470048BE383
:1004100091E00E9474048FEF97EA21E681509040AA
:100420002040E1F700C000000C9489040E94700491
:100430008DE491E00E9474048FEF97EA21E68150E9
:1004400090402040E1F700C000000C94A101EF9221
:10045000FF920F931F93CF93DF938C01EB012F98A3
:100460000E94700483E0E82EF12CBE01C8010E94B6
:10047000AA01BE0188E791E00E94E2010196B9F469
:1004800031E0E31AF10889F70E9470042F9A8EE593
:1004900091E00E9474048FEF93EB24EC34E08150E0
:1004A000904020403040D9F700C00000D8CF0E94D3
:1004B0007004DF91CF911F910F91FF90EF900C94FA
:1004C00089041092C50080E18093C40086E0809387
:1004D000C20088E18093C10008959091C00095FF0B
:1004E000FCCF8093C60008959091C00095FFFCCF8B
:1004F00008958091C00087FFFCCF8091C6000895C9
:10050000CF93DF93EC018991811105C08AE0DF91DF
:10051000CF910C946D020E946D02F5CF8F929F9245
:10052000AF92BF92DF92EF92FF920F931F93CF9300
:10053000DF93CDB7DEB7A2970FB6F894DEBF0FBE3C
:10054000CDBF6F8F78A389A39AA3DC01CB01B7FD40
:1005500046C08E010F5F1F4F78012AE0822E912C3A
:10056000A12CB12C6F8D78A189A19AA1A50194012C
:100570000E94CB046F8F78A389A39AA3F8010F5F21
:100580001F4F8F8D805D80832F8F38A349A35AA37F
:10059000232B242B252B31F7D8011C92F701015076
:1005A00011090E171F0708F043C08E010F5F1F4F80
:1005B000F80181918F01811144C0A2960FB6F89481
:1005C000DEBF0FBECDBFDF91CF911F910F91FF9086
:1005D000EF90DF90BF90AF909F908F9008958DE245
:1005E00089838E010E5F1F4F78018AE0882E912C3F
:1005F000A12CB12C90E3D92E6F8D78A189A19AA15D
:10060000A50194010E94CB046F8F78A389A39AA3BC
:10061000F8010F5F1F4F8D2D9F8D891B80832F8FBA
:1006200038A349A35AA3232B242B252B29F7B4CF76
:100630008191D8019C91DF0111979C93D8018C93F3
:10064000AECF0E946D02B4CF6F927F928F929F9235
:10065000AF92BF92CF92DF92EF92FF920F931F93D0
:10066000CF93DF93CDB7DEB7A2970FB6F894DEBF76
:100670000FBECDBF6F8F78A389A39AA34B015C01F6
:10068000BC01A401FE0131963F019F0131966A0130
:100690007B011FE0C122DD24EE24FF2480E3C80E8D
:1006A000D901CC926A017B0194E0769567955795C4
:1006B00047959A95D1F7B0E1CB16D104E104F10446
:1006C00020F710E181169104A104B10410F4808395
:1006D000319610828301D3013197EA17FB07D0F4DA
:1006E000D8018D918D01811120C0A2960FB6F8948A
:1006F000DEBF0FBECDBFDF91CF911F910F91FF9055
:10070000EF90DF90CF90BF90AF909F908F907F90B1
:100710006F9008958C918A330CF0895D90819A33A3
:100720000CF0995D9D938083D7CF0E946D02D8CF46
:10073000CF93DF93EC018991811103C0DF91CF91B9
:1007400008950E946D02F7CFCF93DF93CDB7DEB748
:1007500028970FB6F894DEBF0FBECDBF69837A83AA
:100760008B839C830E947F056D837E838F83988714
:100770000E948E0288E691E00E9498036D817E813E
:100780008F8198850E94AE056D837E838F839887C5
:100790009B01AC0169817A818B819C810E94120549
:1007A00069837A838B839C8320E030E04AE754E4BA
:1007B0000E943C0669837A838B839C830E947F0519
:1007C00069837A838B839C83DC01CB01843691051A
:1007D000A105B10580F48EE191E00E949803898122
:1007E0009A81AB81BC810A97A105B10520F48EE105
:1007F00091E00E94980369817A818B819C8128967F
:100800000FB6F894DEBF0FBECDBFDF91CF910C9431
:100810008E02982F880F880F880F887091FD846052
:1008200092FD826093FD81600895CF93C82F88B1B7
:10083000807F88B9662369F1459A85E08A95F1F74A
:1008400000008C2F82958F700E94090498B1982B1C
:1008500098B9449A85E08A95F1F70000449885E0BC
:100860008A95F1F7000088B1807F88B98C2F8F704E
:100870000E94090498B1982B98B9449A85E08A950A
:10088000F1F70000449885E08A95F1F70000CF91D8
:1008900008954598D2CF87B18F6387B98FE59AEED7
:1008A0000197F1F700C0000060E083E30E941504A7
:1008B00060E083E30E94150460E082E30E94150477
:1008C00060E088E20E94150460E088E00E94150460
:1008D00060E08FE00E94150460E081E00C94150454
:1008E00060E081E00C941504CF93DF93EC018991D3
:1008F000811103C0DF91CF91089561E00E9415043A
:10090000F6CF90EC613009F090E860E0890F0C942C
:1009100015040E9461028AB1807F8AB98AB1806E13
:100920008AB9259A279A2098289A0E944B040E94F7
:10093000F1002FEF83E294EF215080409040E1F7E7
:1009400000C000000E94700468E771E0D0E0C0E0E1
:10095000CE010E945B0161E081E00E94810461E7B9
:1009600071E0CE010E945B0161E771E088E791E0F0
:100970000E9401022FEF83E294EF215080409040CB
:10098000E1F700C000006AE671E0CE010E94270294
:1009900090E080E00895052E97FB1EF400940E94DD
:1009A000E20457FD07D00E94F00407FC03D04EF488
:1009B0000C94E20450954095309521953F4F4F4F50
:1009C0005F4F089590958095709561957F4F8F4FFB
:1009D0009F4F0895EE0FFF1F0590F491E02D0994AD
:1009E000A1E21A2EAA1BBB1BFD010DC0AA1FBB1F33
:1009F000EE1FFF1FA217B307E407F50720F0A21BA5
:100A0000B30BE40BF50B661F771F881F991F1A9411
:100A100069F760957095809590959B01AC01BD013B
:100A2000CF0108955058BB27AA270E942A050C948D
:100A300002060E94F40538F00E94FB0520F039F40C
:100A40009F3F19F426F40C94F1050EF4E095E7FBB2
:100A50000C94EB05E92F0E94130658F3BA176207AE
:100A600073078407950720F079F4A6F50C943506F2
:100A70000EF4E0950B2EBA2FA02D0B01B9019001B9
:100A80000C01CA01A0011124FF27591B99F0593FFD
:100A900050F4503E68F11A16F040A22F232F342F45
:100AA0004427585FF3CF469537952795A795F04093
:100AB0005395C9F77EF41F16BA0B620B730B840BA8
:100AC000BAF09150A1F0FF0FBB1F661F771F881F60
:100AD000C2F70EC0BA0F621F731F841F48F48795B8
:100AE00077956795B795F7959E3F08F0B0CF9395AA
:100AF000880F08F09927EE0F9795879508950E9423
:100B00001B0688F09F5798F0B92F9927B751B0F07E
:100B1000E1F0660F771F881F991F1AF0BA95C9F781
:100B200014C0B13091F00E943506B1E008950C94E4
:100B30003506672F782F8827B85F39F0B93FCCF397
:100B4000869577956795B395D9F73EF490958095FE
:100B5000709561957F4F8F4F9F4F0895E89409C01E
:100B600097FB3EF490958095709561957F4F8F4FE0
:100B70009F4F9923A9F0F92F96E9BB279395F695F6
:100B8000879577956795B795F111F8CFFAF4BB0F74
:100B900011F460FF1BC06F5F7F4F8F4F9F4F16C0D8
:100BA000882311F096E911C0772321F09EE8872F62
:100BB000762F05C0662371F096E8862F70E060E01E
:100BC0002AF09A95660F771F881FDAF7880F969597
:100BD000879597F9089597F99F6780E870E060E03E
:100BE00008959FEF80EC089500240A9416161706C6
:100BF00018060906089500240A941216130614060E
:100C000005060895092E0394000C11F4882352F070
:100C1000BB0F40F4BF2B11F460FF04C06F5F7F4F28
:100C20008F4F9F4F089557FD9058440F551F59F00F
:100C30005F3F71F04795880F97FB991F61F09F3FC9
:100C400079F087950895121613061406551FF2CFF2
:100C50004695F1DF08C0161617061806991FF1CF42
:100C600086957105610508940895E894BB27662769
:100C70007727CB0197F908950E944F060C9402063E
:100C80000E94F40538F00E94FB0520F0952311F036
:100C90000C94EB050C94F10511240C9436060E947B
:100CA000130670F3959FC1F3950F50E0551F629F97
:100CB000F001729FBB27F00DB11D639FAA27F00DB5
:100CC000B11DAA1F649F6627B00DA11D661F829FDC
:100CD0002227B00DA11D621F739FB00DA11D621FC1
:100CE000839FA00D611D221F749F3327A00D611DDE
:100CF000231F849F600D211D822F762F6A2F1124C0
:100D00009F5750409AF0F1F088234AF0EE0FFF1FF2
:100D1000BB1F661F771F881F91505040A9F79E3F49
:100D2000510580F00C94EB050C9436065F3FE4F31C
:100D3000983ED4F3869577956795B795F795E7959F
:100D40009F5FC1F7FE2B880F911D9695879597F9A8
:100D50000895F894FFCFD200D600D900DC00DF0060
:080D6000E200E500E800EB00F1
:100D68003132333435363738392A302331003200BE
:100D780033003400350036003700380039003000C1
:100D88006572726F004C69767265207061726120BD
:100D980075736F00456D2075736F0053656E6861DC
:100DA80073206469666572656E7465730053656E59
:100DB8006861206361646173747261646100626C6C
:0A0DC8006F71756561646F002E0005
:00000001FF
